{
  "_format": "hh-sol-artifact-1",
  "contractName": "TheNewSakiPlace",
  "sourceName": "contracts/TheNewSakiPlace.sol",
  "abi": [
    {
      "inputs": [
        {
          "internalType": "address",
          "name": "nftAddress",
          "type": "address"
        }
      ],
      "stateMutability": "nonpayable",
      "type": "constructor"
    },
    {
      "anonymous": false,
      "inputs": [
        {
          "indexed": true,
          "internalType": "uint256",
          "name": "tokenId",
          "type": "uint256"
        }
      ],
      "name": "ListingCanceled",
      "type": "event"
    },
    {
      "anonymous": false,
      "inputs": [
        {
          "indexed": true,
          "internalType": "uint256",
          "name": "tokenId",
          "type": "uint256"
        },
        {
          "indexed": true,
          "internalType": "address",
          "name": "seller",
          "type": "address"
        },
        {
          "indexed": false,
          "internalType": "uint256",
          "name": "price",
          "type": "uint256"
        }
      ],
      "name": "NFTListed",
      "type": "event"
    },
    {
      "anonymous": false,
      "inputs": [
        {
          "indexed": true,
          "internalType": "uint256",
          "name": "tokenId",
          "type": "uint256"
        },
        {
          "indexed": true,
          "internalType": "address",
          "name": "buyer",
          "type": "address"
        },
        {
          "indexed": false,
          "internalType": "uint256",
          "name": "price",
          "type": "uint256"
        }
      ],
      "name": "NFTPurchased",
      "type": "event"
    },
    {
      "inputs": [
        {
          "internalType": "uint256",
          "name": "tokenId",
          "type": "uint256"
        },
        {
          "internalType": "uint256",
          "name": "_price",
          "type": "uint256"
        }
      ],
      "name": "buyNFT",
      "outputs": [],
      "stateMutability": "payable",
      "type": "function"
    },
    {
      "inputs": [
        {
          "internalType": "uint256",
          "name": "tokenId",
          "type": "uint256"
        }
      ],
      "name": "cancelListing",
      "outputs": [],
      "stateMutability": "nonpayable",
      "type": "function"
    },
    {
      "inputs": [
        {
          "internalType": "uint256",
          "name": "tokenId",
          "type": "uint256"
        },
        {
          "internalType": "uint256",
          "name": "_price",
          "type": "uint256"
        }
      ],
      "name": "listNFT",
      "outputs": [],
      "stateMutability": "nonpayable",
      "type": "function"
    },
    {
      "inputs": [
        {
          "internalType": "uint256",
          "name": "",
          "type": "uint256"
        }
      ],
      "name": "listings",
      "outputs": [
        {
          "internalType": "address",
          "name": "seller",
          "type": "address"
        },
        {
          "internalType": "uint256",
          "name": "price",
          "type": "uint256"
        }
      ],
      "stateMutability": "view",
      "type": "function"
    },
    {
      "inputs": [],
      "name": "theSakiNFTs",
      "outputs": [
        {
          "internalType": "contract ITheSakiNFTs",
          "name": "",
          "type": "address"
        }
      ],
      "stateMutability": "view",
      "type": "function"
    }
  ],
  "bytecode": "0x608060405234801561001057600080fd5b50604051610e28380380610e28833981810160405281019061003291906100db565b806000806101000a81548173ffffffffffffffffffffffffffffffffffffffff021916908373ffffffffffffffffffffffffffffffffffffffff16021790555050610108565b600080fd5b600073ffffffffffffffffffffffffffffffffffffffff82169050919050565b60006100a88261007d565b9050919050565b6100b88161009d565b81146100c357600080fd5b50565b6000815190506100d5816100af565b92915050565b6000602082840312156100f1576100f0610078565b5b60006100ff848285016100c6565b91505092915050565b610d11806101176000396000f3fe60806040526004361061004a5760003560e01c80631d85bf031461004f578063305a67a81461006b57806394383f1414610094578063a4399d17146100bd578063de74e57b146100e8575b600080fd5b61006960048036038101906100649190610811565b610126565b005b34801561007757600080fd5b50610092600480360381019061008d9190610851565b610418565b005b3480156100a057600080fd5b506100bb60048036038101906100b69190610811565b610582565b005b3480156100c957600080fd5b506100d261076e565b6040516100df91906108fd565b60405180910390f35b3480156100f457600080fd5b5061010f600480360381019061010a9190610851565b610792565b60405161011d929190610948565b60405180910390f35b6000600160008481526020019081526020016000206040518060400160405290816000820160009054906101000a900473ffffffffffffffffffffffffffffffffffffffff1673ffffffffffffffffffffffffffffffffffffffff1673ffffffffffffffffffffffffffffffffffffffff1681526020016001820154815250509050600081602001519050600081116101f4576040517f08c379a00000000000000000000000000000000000000000000000000000000081526004016101eb906109ce565b60405180910390fd5b808314610236576040517f08c379a000000000000000000000000000000000000000000000000000000000815260040161022d90610a60565b60405180910390fd5b60016000858152602001908152602001600020600080820160006101000a81549073ffffffffffffffffffffffffffffffffffffffff02191690556001820160009055505060008054906101000a900473ffffffffffffffffffffffffffffffffffffffff1673ffffffffffffffffffffffffffffffffffffffff166342842e0e836000015133876040518463ffffffff1660e01b81526004016102dc93929190610a80565b600060405180830381600087803b1580156102f657600080fd5b505af115801561030a573d6000803e3d6000fd5b505050506000826000015173ffffffffffffffffffffffffffffffffffffffff168460405161033890610ae8565b60006040518083038185875af1925050503d8060008114610375576040519150601f19603f3d011682016040523d82523d6000602084013e61037a565b606091505b50509050806103be576040517f08c379a00000000000000000000000000000000000000000000000000000000081526004016103b590610b49565b60405180910390fd5b3373ffffffffffffffffffffffffffffffffffffffff16857fad546cba5af920bc2c64678bbd69f3d8965ac26d1b82f7ebf6f098aaa833528285602001516040516104099190610b69565b60405180910390a35050505050565b6000600160008381526020019081526020016000206040518060400160405290816000820160009054906101000a900473ffffffffffffffffffffffffffffffffffffffff1673ffffffffffffffffffffffffffffffffffffffff1673ffffffffffffffffffffffffffffffffffffffff16815260200160018201548152505090503373ffffffffffffffffffffffffffffffffffffffff16816000015173ffffffffffffffffffffffffffffffffffffffff161461050c576040517f08c379a000000000000000000000000000000000000000000000000000000000815260040161050390610bf6565b60405180910390fd5b60016000838152602001908152602001600020600080820160006101000a81549073ffffffffffffffffffffffffffffffffffffffff021916905560018201600090555050817f5d7a33421ffa4bc07eb8929c5ace6393d3aa5ec3775e4e2f442527876b7dbe8860405160405180910390a25050565b3373ffffffffffffffffffffffffffffffffffffffff1660008054906101000a900473ffffffffffffffffffffffffffffffffffffffff1673ffffffffffffffffffffffffffffffffffffffff16636352211e846040518263ffffffff1660e01b81526004016105f29190610b69565b602060405180830381865afa15801561060f573d6000803e3d6000fd5b505050506040513d601f19601f820116820180604052508101906106339190610c42565b73ffffffffffffffffffffffffffffffffffffffff1614610689576040517f08c379a000000000000000000000000000000000000000000000000000000000815260040161068090610cbb565b60405180910390fd5b60405180604001604052803373ffffffffffffffffffffffffffffffffffffffff168152602001828152506001600084815260200190815260200160002060008201518160000160006101000a81548173ffffffffffffffffffffffffffffffffffffffff021916908373ffffffffffffffffffffffffffffffffffffffff160217905550602082015181600101559050503373ffffffffffffffffffffffffffffffffffffffff16827f5f9c03de076f5063cd3ebcfe8ef7aa8af378e4b35a83c77ba9777e97083879a2836040516107629190610b69565b60405180910390a35050565b60008054906101000a900473ffffffffffffffffffffffffffffffffffffffff1681565b60016020528060005260406000206000915090508060000160009054906101000a900473ffffffffffffffffffffffffffffffffffffffff16908060010154905082565b600080fd5b6000819050919050565b6107ee816107db565b81146107f957600080fd5b50565b60008135905061080b816107e5565b92915050565b60008060408385031215610828576108276107d6565b5b6000610836858286016107fc565b9250506020610847858286016107fc565b9150509250929050565b600060208284031215610867576108666107d6565b5b6000610875848285016107fc565b91505092915050565b600073ffffffffffffffffffffffffffffffffffffffff82169050919050565b6000819050919050565b60006108c36108be6108b98461087e565b61089e565b61087e565b9050919050565b60006108d5826108a8565b9050919050565b60006108e7826108ca565b9050919050565b6108f7816108dc565b82525050565b600060208201905061091260008301846108ee565b92915050565b60006109238261087e565b9050919050565b61093381610918565b82525050565b610942816107db565b82525050565b600060408201905061095d600083018561092a565b61096a6020830184610939565b9392505050565b600082825260208201905092915050565b7f4e4654206e6f74206c697374656420666f722073616c65000000000000000000600082015250565b60006109b8601783610971565b91506109c382610982565b602082019050919050565b600060208201905081810360008301526109e7816109ab565b9050919050565b7f496e636f72726563742070726963652c20706c6561736520696e74726f64756360008201527f652074686520657861637420616d6f756e740000000000000000000000000000602082015250565b6000610a4a603283610971565b9150610a55826109ee565b604082019050919050565b60006020820190508181036000830152610a7981610a3d565b9050919050565b6000606082019050610a95600083018661092a565b610aa2602083018561092a565b610aaf6040830184610939565b949350505050565b600081905092915050565b50565b6000610ad2600083610ab7565b9150610add82610ac2565b600082019050919050565b6000610af382610ac5565b9150819050919050565b7f5472616e73666572206661696c65640000000000000000000000000000000000600082015250565b6000610b33600f83610971565b9150610b3e82610afd565b602082019050919050565b60006020820190508181036000830152610b6281610b26565b9050919050565b6000602082019050610b7e6000830184610939565b92915050565b7f4f6e6c79207468652073656c6c65722063616e2063616e63656c20746865206c60008201527f697374696e670000000000000000000000000000000000000000000000000000602082015250565b6000610be0602683610971565b9150610beb82610b84565b604082019050919050565b60006020820190508181036000830152610c0f81610bd3565b9050919050565b610c1f81610918565b8114610c2a57600080fd5b50565b600081519050610c3c81610c16565b92915050565b600060208284031215610c5857610c576107d6565b5b6000610c6684828501610c2d565b91505092915050565b7f4f6e6c7920746865206f776e65722063616e206c69737420746865204e465400600082015250565b6000610ca5601f83610971565b9150610cb082610c6f565b602082019050919050565b60006020820190508181036000830152610cd481610c98565b905091905056fea26469706673582212209f2e97e2e5c7f6bac086e7e17dfb405d7438665836b272e991b1d5eda26917dd64736f6c63430008180033",
  "linkReferences": {},
  "deployedLinkReferences": {}
}