{
  "_format": "hh-sol-artifact-1",
  "contractName": "TheNewSakiPlace",
  "sourceName": "contracts/TheNewSakiPlace.sol",
  "abi": [
    {
      "inputs": [
        {
          "internalType": "address",
          "name": "nftAddress",
          "type": "address"
        }
      ],
      "stateMutability": "nonpayable",
      "type": "constructor"
    },
    {
      "anonymous": false,
      "inputs": [
        {
          "indexed": true,
          "internalType": "uint256",
          "name": "tokenId",
          "type": "uint256"
        }
      ],
      "name": "ListingCanceled",
      "type": "event"
    },
    {
      "anonymous": false,
      "inputs": [
        {
          "indexed": true,
          "internalType": "uint256",
          "name": "tokenId",
          "type": "uint256"
        },
        {
          "indexed": true,
          "internalType": "address",
          "name": "seller",
          "type": "address"
        },
        {
          "indexed": false,
          "internalType": "uint256",
          "name": "price",
          "type": "uint256"
        }
      ],
      "name": "NFTListed",
      "type": "event"
    },
    {
      "anonymous": false,
      "inputs": [
        {
          "indexed": true,
          "internalType": "uint256",
          "name": "tokenId",
          "type": "uint256"
        },
        {
          "indexed": true,
          "internalType": "address",
          "name": "buyer",
          "type": "address"
        },
        {
          "indexed": false,
          "internalType": "uint256",
          "name": "price",
          "type": "uint256"
        }
      ],
      "name": "NFTPurchased",
      "type": "event"
    },
    {
      "inputs": [
        {
          "internalType": "uint256",
          "name": "tokenId",
          "type": "uint256"
        }
      ],
      "name": "buyNFT",
      "outputs": [],
      "stateMutability": "payable",
      "type": "function"
    },
    {
      "inputs": [
        {
          "internalType": "uint256",
          "name": "tokenId",
          "type": "uint256"
        }
      ],
      "name": "cancelListing",
      "outputs": [],
      "stateMutability": "nonpayable",
      "type": "function"
    },
    {
      "inputs": [
        {
          "internalType": "uint256",
          "name": "tokenId",
          "type": "uint256"
        },
        {
          "internalType": "uint256",
          "name": "_price",
          "type": "uint256"
        }
      ],
      "name": "listNFT",
      "outputs": [],
      "stateMutability": "nonpayable",
      "type": "function"
    },
    {
      "inputs": [
        {
          "internalType": "uint256",
          "name": "",
          "type": "uint256"
        }
      ],
      "name": "listings",
      "outputs": [
        {
          "internalType": "address",
          "name": "seller",
          "type": "address"
        },
        {
          "internalType": "uint256",
          "name": "price",
          "type": "uint256"
        }
      ],
      "stateMutability": "view",
      "type": "function"
    },
    {
      "inputs": [],
      "name": "theSakiNFTs",
      "outputs": [
        {
          "internalType": "contract ITheSakiNFTs",
          "name": "",
          "type": "address"
        }
      ],
      "stateMutability": "view",
      "type": "function"
    }
  ],
  "bytecode": "0x608060405234801561001057600080fd5b50604051610e27380380610e27833981810160405281019061003291906100db565b806000806101000a81548173ffffffffffffffffffffffffffffffffffffffff021916908373ffffffffffffffffffffffffffffffffffffffff16021790555050610108565b600080fd5b600073ffffffffffffffffffffffffffffffffffffffff82169050919050565b60006100a88261007d565b9050919050565b6100b88161009d565b81146100c357600080fd5b50565b6000815190506100d5816100af565b92915050565b6000602082840312156100f1576100f0610078565b5b60006100ff848285016100c6565b91505092915050565b610d10806101176000396000f3fe60806040526004361061004a5760003560e01c8063305a67a81461004f57806351ed82881461007857806394383f1414610094578063a4399d17146100bd578063de74e57b146100e8575b600080fd5b34801561005b57600080fd5b5061007660048036038101906100719190610810565b610126565b005b610092600480360381019061008d9190610810565b610290565b005b3480156100a057600080fd5b506100bb60048036038101906100b6919061083d565b610581565b005b3480156100c957600080fd5b506100d261076d565b6040516100df91906108fc565b60405180910390f35b3480156100f457600080fd5b5061010f600480360381019061010a9190610810565b610791565b60405161011d929190610947565b60405180910390f35b6000600160008381526020019081526020016000206040518060400160405290816000820160009054906101000a900473ffffffffffffffffffffffffffffffffffffffff1673ffffffffffffffffffffffffffffffffffffffff1673ffffffffffffffffffffffffffffffffffffffff16815260200160018201548152505090503373ffffffffffffffffffffffffffffffffffffffff16816000015173ffffffffffffffffffffffffffffffffffffffff161461021a576040517f08c379a0000000000000000000000000000000000000000000000000000000008152600401610211906109f3565b60405180910390fd5b60016000838152602001908152602001600020600080820160006101000a81549073ffffffffffffffffffffffffffffffffffffffff021916905560018201600090555050817f5d7a33421ffa4bc07eb8929c5ace6393d3aa5ec3775e4e2f442527876b7dbe8860405160405180910390a25050565b6000600160008381526020019081526020016000206040518060400160405290816000820160009054906101000a900473ffffffffffffffffffffffffffffffffffffffff1673ffffffffffffffffffffffffffffffffffffffff1673ffffffffffffffffffffffffffffffffffffffff16815260200160018201548152505090506000816020015190506000811161035e576040517f08c379a000000000000000000000000000000000000000000000000000000000815260040161035590610a5f565b60405180910390fd5b8034146103a0576040517f08c379a000000000000000000000000000000000000000000000000000000000815260040161039790610af1565b60405180910390fd5b60016000848152602001908152602001600020600080820160006101000a81549073ffffffffffffffffffffffffffffffffffffffff02191690556001820160009055505060008054906101000a900473ffffffffffffffffffffffffffffffffffffffff1673ffffffffffffffffffffffffffffffffffffffff166342842e0e836000015133866040518463ffffffff1660e01b815260040161044693929190610b11565b600060405180830381600087803b15801561046057600080fd5b505af1158015610474573d6000803e3d6000fd5b505050506000826000015173ffffffffffffffffffffffffffffffffffffffff16346040516104a290610b79565b60006040518083038185875af1925050503d80600081146104df576040519150601f19603f3d011682016040523d82523d6000602084013e6104e4565b606091505b5050905080610528576040517f08c379a000000000000000000000000000000000000000000000000000000000815260040161051f90610bda565b60405180910390fd5b3373ffffffffffffffffffffffffffffffffffffffff16847fad546cba5af920bc2c64678bbd69f3d8965ac26d1b82f7ebf6f098aaa833528285602001516040516105739190610bfa565b60405180910390a350505050565b3373ffffffffffffffffffffffffffffffffffffffff1660008054906101000a900473ffffffffffffffffffffffffffffffffffffffff1673ffffffffffffffffffffffffffffffffffffffff16636352211e846040518263ffffffff1660e01b81526004016105f19190610bfa565b602060405180830381865afa15801561060e573d6000803e3d6000fd5b505050506040513d601f19601f820116820180604052508101906106329190610c41565b73ffffffffffffffffffffffffffffffffffffffff1614610688576040517f08c379a000000000000000000000000000000000000000000000000000000000815260040161067f90610cba565b60405180910390fd5b60405180604001604052803373ffffffffffffffffffffffffffffffffffffffff168152602001828152506001600084815260200190815260200160002060008201518160000160006101000a81548173ffffffffffffffffffffffffffffffffffffffff021916908373ffffffffffffffffffffffffffffffffffffffff160217905550602082015181600101559050503373ffffffffffffffffffffffffffffffffffffffff16827f5f9c03de076f5063cd3ebcfe8ef7aa8af378e4b35a83c77ba9777e97083879a2836040516107619190610bfa565b60405180910390a35050565b60008054906101000a900473ffffffffffffffffffffffffffffffffffffffff1681565b60016020528060005260406000206000915090508060000160009054906101000a900473ffffffffffffffffffffffffffffffffffffffff16908060010154905082565b600080fd5b6000819050919050565b6107ed816107da565b81146107f857600080fd5b50565b60008135905061080a816107e4565b92915050565b600060208284031215610826576108256107d5565b5b6000610834848285016107fb565b91505092915050565b60008060408385031215610854576108536107d5565b5b6000610862858286016107fb565b9250506020610873858286016107fb565b9150509250929050565b600073ffffffffffffffffffffffffffffffffffffffff82169050919050565b6000819050919050565b60006108c26108bd6108b88461087d565b61089d565b61087d565b9050919050565b60006108d4826108a7565b9050919050565b60006108e6826108c9565b9050919050565b6108f6816108db565b82525050565b600060208201905061091160008301846108ed565b92915050565b60006109228261087d565b9050919050565b61093281610917565b82525050565b610941816107da565b82525050565b600060408201905061095c6000830185610929565b6109696020830184610938565b9392505050565b600082825260208201905092915050565b7f4f6e6c79207468652073656c6c65722063616e2063616e63656c20746865206c60008201527f697374696e670000000000000000000000000000000000000000000000000000602082015250565b60006109dd602683610970565b91506109e882610981565b604082019050919050565b60006020820190508181036000830152610a0c816109d0565b9050919050565b7f4e4654206e6f74206c697374656420666f722073616c65000000000000000000600082015250565b6000610a49601783610970565b9150610a5482610a13565b602082019050919050565b60006020820190508181036000830152610a7881610a3c565b9050919050565b7f496e636f72726563742070726963652c20706c6561736520696e74726f64756360008201527f652074686520657861637420616d6f756e740000000000000000000000000000602082015250565b6000610adb603283610970565b9150610ae682610a7f565b604082019050919050565b60006020820190508181036000830152610b0a81610ace565b9050919050565b6000606082019050610b266000830186610929565b610b336020830185610929565b610b406040830184610938565b949350505050565b600081905092915050565b50565b6000610b63600083610b48565b9150610b6e82610b53565b600082019050919050565b6000610b8482610b56565b9150819050919050565b7f5472616e73666572206661696c65640000000000000000000000000000000000600082015250565b6000610bc4600f83610970565b9150610bcf82610b8e565b602082019050919050565b60006020820190508181036000830152610bf381610bb7565b9050919050565b6000602082019050610c0f6000830184610938565b92915050565b610c1e81610917565b8114610c2957600080fd5b50565b600081519050610c3b81610c15565b92915050565b600060208284031215610c5757610c566107d5565b5b6000610c6584828501610c2c565b91505092915050565b7f4f6e6c7920746865206f776e65722063616e206c69737420746865204e465400600082015250565b6000610ca4601f83610970565b9150610caf82610c6e565b602082019050919050565b60006020820190508181036000830152610cd381610c97565b905091905056fea2646970667358221220d8b5605de3f5d4b495a5738067cc5acd51b4b950793864ce95f49c6ef119dfe364736f6c63430008180033",
  "linkReferences": {},
  "deployedLinkReferences": {}
}