{
  "_format": "hh-sol-artifact-1",
  "contractName": "TheSakiPlace",
  "sourceName": "contracts/TheSakiPlace.sol",
  "abi": [
    {
      "inputs": [
        {
          "internalType": "address",
          "name": "nftAddress",
          "type": "address"
        }
      ],
      "stateMutability": "nonpayable",
      "type": "constructor"
    },
    {
      "anonymous": false,
      "inputs": [
        {
          "indexed": true,
          "internalType": "uint256",
          "name": "tokenId",
          "type": "uint256"
        }
      ],
      "name": "ListingCanceled",
      "type": "event"
    },
    {
      "anonymous": false,
      "inputs": [
        {
          "indexed": true,
          "internalType": "uint256",
          "name": "tokenId",
          "type": "uint256"
        },
        {
          "indexed": true,
          "internalType": "address",
          "name": "seller",
          "type": "address"
        },
        {
          "indexed": false,
          "internalType": "uint256",
          "name": "price",
          "type": "uint256"
        }
      ],
      "name": "NFTListed",
      "type": "event"
    },
    {
      "anonymous": false,
      "inputs": [
        {
          "indexed": true,
          "internalType": "uint256",
          "name": "tokenId",
          "type": "uint256"
        },
        {
          "indexed": true,
          "internalType": "address",
          "name": "buyer",
          "type": "address"
        },
        {
          "indexed": false,
          "internalType": "uint256",
          "name": "price",
          "type": "uint256"
        }
      ],
      "name": "NFTPurchased",
      "type": "event"
    },
    {
      "inputs": [
        {
          "internalType": "uint256",
          "name": "tokenId",
          "type": "uint256"
        }
      ],
      "name": "buyNFT",
      "outputs": [],
      "stateMutability": "payable",
      "type": "function"
    },
    {
      "inputs": [
        {
          "internalType": "uint256",
          "name": "tokenId",
          "type": "uint256"
        }
      ],
      "name": "cancelListing",
      "outputs": [],
      "stateMutability": "nonpayable",
      "type": "function"
    },
    {
      "inputs": [
        {
          "internalType": "uint256",
          "name": "tokenId",
          "type": "uint256"
        },
        {
          "internalType": "uint256",
          "name": "_price",
          "type": "uint256"
        }
      ],
      "name": "listNFT",
      "outputs": [],
      "stateMutability": "nonpayable",
      "type": "function"
    },
    {
      "inputs": [
        {
          "internalType": "uint256",
          "name": "",
          "type": "uint256"
        }
      ],
      "name": "listings",
      "outputs": [
        {
          "internalType": "address",
          "name": "seller",
          "type": "address"
        },
        {
          "internalType": "uint256",
          "name": "price",
          "type": "uint256"
        }
      ],
      "stateMutability": "view",
      "type": "function"
    },
    {
      "inputs": [],
      "name": "theSakiNFTs",
      "outputs": [
        {
          "internalType": "contract ITheSakiNFTs",
          "name": "",
          "type": "address"
        }
      ],
      "stateMutability": "view",
      "type": "function"
    }
  ],
  "bytecode": "0x60806040523480156200001157600080fd5b50604051620010de380380620010de8339818101604052810190620000379190620000e8565b806000806101000a81548173ffffffffffffffffffffffffffffffffffffffff021916908373ffffffffffffffffffffffffffffffffffffffff160217905550506200011a565b600080fd5b600073ffffffffffffffffffffffffffffffffffffffff82169050919050565b6000620000b08262000083565b9050919050565b620000c281620000a3565b8114620000ce57600080fd5b50565b600081519050620000e281620000b7565b92915050565b6000602082840312156200010157620001006200007e565b5b60006200011184828501620000d1565b91505092915050565b610fb4806200012a6000396000f3fe60806040526004361061004a5760003560e01c8063305a67a81461004f57806351ed82881461007857806394383f1414610094578063a4399d17146100bd578063de74e57b146100e8575b600080fd5b34801561005b57600080fd5b50610076600480360381019061007191906109ba565b610126565b005b610092600480360381019061008d91906109ba565b610290565b005b3480156100a057600080fd5b506100bb60048036038101906100b691906109e7565b610581565b005b3480156100c957600080fd5b506100d2610917565b6040516100df9190610aa6565b60405180910390f35b3480156100f457600080fd5b5061010f600480360381019061010a91906109ba565b61093b565b60405161011d929190610af1565b60405180910390f35b6000600160008381526020019081526020016000206040518060400160405290816000820160009054906101000a900473ffffffffffffffffffffffffffffffffffffffff1673ffffffffffffffffffffffffffffffffffffffff1673ffffffffffffffffffffffffffffffffffffffff16815260200160018201548152505090503373ffffffffffffffffffffffffffffffffffffffff16816000015173ffffffffffffffffffffffffffffffffffffffff161461021a576040517f08c379a000000000000000000000000000000000000000000000000000000000815260040161021190610b9d565b60405180910390fd5b60016000838152602001908152602001600020600080820160006101000a81549073ffffffffffffffffffffffffffffffffffffffff021916905560018201600090555050817f5d7a33421ffa4bc07eb8929c5ace6393d3aa5ec3775e4e2f442527876b7dbe8860405160405180910390a25050565b6000600160008381526020019081526020016000206040518060400160405290816000820160009054906101000a900473ffffffffffffffffffffffffffffffffffffffff1673ffffffffffffffffffffffffffffffffffffffff1673ffffffffffffffffffffffffffffffffffffffff16815260200160018201548152505090506000816020015190506000811161035e576040517f08c379a000000000000000000000000000000000000000000000000000000000815260040161035590610c09565b60405180910390fd5b8034146103a0576040517f08c379a000000000000000000000000000000000000000000000000000000000815260040161039790610c9b565b60405180910390fd5b60016000848152602001908152602001600020600080820160006101000a81549073ffffffffffffffffffffffffffffffffffffffff02191690556001820160009055505060008054906101000a900473ffffffffffffffffffffffffffffffffffffffff1673ffffffffffffffffffffffffffffffffffffffff166342842e0e836000015133866040518463ffffffff1660e01b815260040161044693929190610cbb565b600060405180830381600087803b15801561046057600080fd5b505af1158015610474573d6000803e3d6000fd5b505050506000826000015173ffffffffffffffffffffffffffffffffffffffff16346040516104a290610d23565b60006040518083038185875af1925050503d80600081146104df576040519150601f19603f3d011682016040523d82523d6000602084013e6104e4565b606091505b5050905080610528576040517f08c379a000000000000000000000000000000000000000000000000000000000815260040161051f90610d84565b60405180910390fd5b3373ffffffffffffffffffffffffffffffffffffffff16847fad546cba5af920bc2c64678bbd69f3d8965ac26d1b82f7ebf6f098aaa833528285602001516040516105739190610da4565b60405180910390a350505050565b3373ffffffffffffffffffffffffffffffffffffffff1660008054906101000a900473ffffffffffffffffffffffffffffffffffffffff1673ffffffffffffffffffffffffffffffffffffffff16636352211e846040518263ffffffff1660e01b81526004016105f19190610da4565b602060405180830381865afa15801561060e573d6000803e3d6000fd5b505050506040513d601f19601f820116820180604052508101906106329190610deb565b73ffffffffffffffffffffffffffffffffffffffff1614610688576040517f08c379a000000000000000000000000000000000000000000000000000000000815260040161067f90610e64565b60405180910390fd5b60008054906101000a900473ffffffffffffffffffffffffffffffffffffffff1673ffffffffffffffffffffffffffffffffffffffff1663e985e9c533306040518363ffffffff1660e01b81526004016106e3929190610e84565b602060405180830381865afa158015610700573d6000803e3d6000fd5b505050506040513d601f19601f820116820180604052508101906107249190610ee5565b806107f357503073ffffffffffffffffffffffffffffffffffffffff1660008054906101000a900473ffffffffffffffffffffffffffffffffffffffff1673ffffffffffffffffffffffffffffffffffffffff1663081812fc846040518263ffffffff1660e01b815260040161079a9190610da4565b602060405180830381865afa1580156107b7573d6000803e3d6000fd5b505050506040513d601f19601f820116820180604052508101906107db9190610deb565b73ffffffffffffffffffffffffffffffffffffffff16145b610832576040517f08c379a000000000000000000000000000000000000000000000000000000000815260040161082990610f5e565b60405180910390fd5b60405180604001604052803373ffffffffffffffffffffffffffffffffffffffff168152602001828152506001600084815260200190815260200160002060008201518160000160006101000a81548173ffffffffffffffffffffffffffffffffffffffff021916908373ffffffffffffffffffffffffffffffffffffffff160217905550602082015181600101559050503373ffffffffffffffffffffffffffffffffffffffff16827f5f9c03de076f5063cd3ebcfe8ef7aa8af378e4b35a83c77ba9777e97083879a28360405161090b9190610da4565b60405180910390a35050565b60008054906101000a900473ffffffffffffffffffffffffffffffffffffffff1681565b60016020528060005260406000206000915090508060000160009054906101000a900473ffffffffffffffffffffffffffffffffffffffff16908060010154905082565b600080fd5b6000819050919050565b61099781610984565b81146109a257600080fd5b50565b6000813590506109b48161098e565b92915050565b6000602082840312156109d0576109cf61097f565b5b60006109de848285016109a5565b91505092915050565b600080604083850312156109fe576109fd61097f565b5b6000610a0c858286016109a5565b9250506020610a1d858286016109a5565b9150509250929050565b600073ffffffffffffffffffffffffffffffffffffffff82169050919050565b6000819050919050565b6000610a6c610a67610a6284610a27565b610a47565b610a27565b9050919050565b6000610a7e82610a51565b9050919050565b6000610a9082610a73565b9050919050565b610aa081610a85565b82525050565b6000602082019050610abb6000830184610a97565b92915050565b6000610acc82610a27565b9050919050565b610adc81610ac1565b82525050565b610aeb81610984565b82525050565b6000604082019050610b066000830185610ad3565b610b136020830184610ae2565b9392505050565b600082825260208201905092915050565b7f4f6e6c79207468652073656c6c65722063616e2063616e63656c20746865206c60008201527f697374696e670000000000000000000000000000000000000000000000000000602082015250565b6000610b87602683610b1a565b9150610b9282610b2b565b604082019050919050565b60006020820190508181036000830152610bb681610b7a565b9050919050565b7f4e4654206e6f74206c697374656420666f722073616c65000000000000000000600082015250565b6000610bf3601783610b1a565b9150610bfe82610bbd565b602082019050919050565b60006020820190508181036000830152610c2281610be6565b9050919050565b7f496e636f72726563742070726963652c20706c6561736520696e74726f64756360008201527f652074686520657861637420616d6f756e740000000000000000000000000000602082015250565b6000610c85603283610b1a565b9150610c9082610c29565b604082019050919050565b60006020820190508181036000830152610cb481610c78565b9050919050565b6000606082019050610cd06000830186610ad3565b610cdd6020830185610ad3565b610cea6040830184610ae2565b949350505050565b600081905092915050565b50565b6000610d0d600083610cf2565b9150610d1882610cfd565b600082019050919050565b6000610d2e82610d00565b9150819050919050565b7f5472616e73666572206661696c65640000000000000000000000000000000000600082015250565b6000610d6e600f83610b1a565b9150610d7982610d38565b602082019050919050565b60006020820190508181036000830152610d9d81610d61565b9050919050565b6000602082019050610db96000830184610ae2565b92915050565b610dc881610ac1565b8114610dd357600080fd5b50565b600081519050610de581610dbf565b92915050565b600060208284031215610e0157610e0061097f565b5b6000610e0f84828501610dd6565b91505092915050565b7f4f6e6c7920746865206f776e65722063616e206c69737420746865204e465400600082015250565b6000610e4e601f83610b1a565b9150610e5982610e18565b602082019050919050565b60006020820190508181036000830152610e7d81610e41565b9050919050565b6000604082019050610e996000830185610ad3565b610ea66020830184610ad3565b9392505050565b60008115159050919050565b610ec281610ead565b8114610ecd57600080fd5b50565b600081519050610edf81610eb9565b92915050565b600060208284031215610efb57610efa61097f565b5b6000610f0984828501610ed0565b91505092915050565b7f4d61726b6574706c616365206e6f7420617070726f7665640000000000000000600082015250565b6000610f48601883610b1a565b9150610f5382610f12565b602082019050919050565b60006020820190508181036000830152610f7781610f3b565b905091905056fea2646970667358221220eace57dd609dd74eb9292372aab349e3daf9e5bccee52ba2a8bb10762a7c10cb64736f6c63430008180033",
  "linkReferences": {},
  "deployedLinkReferences": {}
}